{
  "_format": "hh-sol-artifact-1",
  "contractName": "OrangeVerifiedCredential",
  "sourceName": "contracts/OrangeVerifiedCredential.sol",
  "abi": [
    {
      "anonymous": false,
      "inputs": [
        {
          "indexed": true,
          "internalType": "uint256",
          "name": "typeId",
          "type": "uint256"
        },
        {
          "indexed": true,
          "internalType": "uint256",
          "name": "certificateId",
          "type": "uint256"
        },
        {
          "indexed": false,
          "internalType": "string",
          "name": "issuedTo",
          "type": "string"
        },
        {
          "indexed": false,
          "internalType": "string",
          "name": "data",
          "type": "string"
        },
        {
          "indexed": true,
          "internalType": "address",
          "name": "owner",
          "type": "address"
        }
      ],
      "name": "CertificateAdded",
      "type": "event"
    },
    {
      "anonymous": false,
      "inputs": [
        {
          "indexed": true,
          "internalType": "uint256",
          "name": "typeId",
          "type": "uint256"
        },
        {
          "indexed": true,
          "internalType": "uint256",
          "name": "certificateId",
          "type": "uint256"
        },
        {
          "indexed": true,
          "internalType": "address",
          "name": "revoker",
          "type": "address"
        }
      ],
      "name": "CertificateRevoked",
      "type": "event"
    },
    {
      "anonymous": false,
      "inputs": [
        {
          "indexed": false,
          "internalType": "uint256",
          "name": "id",
          "type": "uint256"
        },
        {
          "indexed": false,
          "internalType": "string",
          "name": "name",
          "type": "string"
        },
        {
          "indexed": false,
          "internalType": "string",
          "name": "metadata",
          "type": "string"
        },
        {
          "indexed": true,
          "internalType": "address",
          "name": "owner",
          "type": "address"
        }
      ],
      "name": "CertificateTypeAdded",
      "type": "event"
    },
    {
      "anonymous": false,
      "inputs": [
        {
          "indexed": false,
          "internalType": "uint256",
          "name": "id",
          "type": "uint256"
        }
      ],
      "name": "CertificateTypeDeleted",
      "type": "event"
    },
    {
      "anonymous": false,
      "inputs": [
        {
          "indexed": true,
          "internalType": "uint256",
          "name": "typeId",
          "type": "uint256"
        },
        {
          "indexed": true,
          "internalType": "uint256",
          "name": "certificateId",
          "type": "uint256"
        },
        {
          "indexed": true,
          "internalType": "address",
          "name": "verifier",
          "type": "address"
        }
      ],
      "name": "CertificateVerified",
      "type": "event"
    },
    {
      "inputs": [
        {
          "internalType": "uint256",
          "name": "_typeId",
          "type": "uint256"
        },
        {
          "internalType": "string",
          "name": "issuedTo",
          "type": "string"
        },
        {
          "internalType": "string",
          "name": "_data",
          "type": "string"
        },
        {
          "internalType": "uint256",
          "name": "_validity",
          "type": "uint256"
        }
      ],
      "name": "addCertificate",
      "outputs": [
        {
          "internalType": "uint256",
          "name": "",
          "type": "uint256"
        }
      ],
      "stateMutability": "nonpayable",
      "type": "function"
    },
    {
      "inputs": [
        {
          "internalType": "string",
          "name": "_name",
          "type": "string"
        },
        {
          "internalType": "string",
          "name": "metadata",
          "type": "string"
        }
      ],
      "name": "addCertificateType",
      "outputs": [
        {
          "internalType": "uint256",
          "name": "",
          "type": "uint256"
        }
      ],
      "stateMutability": "nonpayable",
      "type": "function"
    },
    {
      "inputs": [
        {
          "internalType": "uint256",
          "name": "_typeId",
          "type": "uint256"
        }
      ],
      "name": "deleteCertificateType",
      "outputs": [],
      "stateMutability": "nonpayable",
      "type": "function"
    },
    {
      "inputs": [],
      "name": "getAllCertificateTypes",
      "outputs": [
        {
          "components": [
            {
              "internalType": "bool",
              "name": "_isInit",
              "type": "bool"
            },
            {
              "internalType": "uint256",
              "name": "id",
              "type": "uint256"
            },
            {
              "internalType": "string",
              "name": "name",
              "type": "string"
            },
            {
              "internalType": "string",
              "name": "metadata",
              "type": "string"
            },
            {
              "internalType": "uint256",
              "name": "createdAt",
              "type": "uint256"
            },
            {
              "internalType": "bool",
              "name": "deleted",
              "type": "bool"
            },
            {
              "internalType": "address",
              "name": "owner",
              "type": "address"
            }
          ],
          "internalType": "struct OrangeVerifiedCredential.CertificateType[]",
          "name": "",
          "type": "tuple[]"
        }
      ],
      "stateMutability": "view",
      "type": "function"
    },
    {
      "inputs": [
        {
          "internalType": "uint256",
          "name": "_typeId",
          "type": "uint256"
        }
      ],
      "name": "getAllCertificatesOfType",
      "outputs": [
        {
          "components": [
            {
              "internalType": "bool",
              "name": "_isInit",
              "type": "bool"
            },
            {
              "internalType": "uint256",
              "name": "id",
              "type": "uint256"
            },
            {
              "components": [
                {
                  "internalType": "bool",
                  "name": "_isInit",
                  "type": "bool"
                },
                {
                  "internalType": "uint256",
                  "name": "id",
                  "type": "uint256"
                },
                {
                  "internalType": "string",
                  "name": "name",
                  "type": "string"
                },
                {
                  "internalType": "string",
                  "name": "metadata",
                  "type": "string"
                },
                {
                  "internalType": "uint256",
                  "name": "createdAt",
                  "type": "uint256"
                },
                {
                  "internalType": "bool",
                  "name": "deleted",
                  "type": "bool"
                },
                {
                  "internalType": "address",
                  "name": "owner",
                  "type": "address"
                }
              ],
              "internalType": "struct OrangeVerifiedCredential.CertificateType",
              "name": "type_",
              "type": "tuple"
            },
            {
              "internalType": "string",
              "name": "issuedTo",
              "type": "string"
            },
            {
              "internalType": "string",
              "name": "data",
              "type": "string"
            },
            {
              "internalType": "uint256",
              "name": "createdAt",
              "type": "uint256"
            },
            {
              "internalType": "uint256",
              "name": "validity",
              "type": "uint256"
            },
            {
              "internalType": "bool",
              "name": "verified",
              "type": "bool"
            },
            {
              "internalType": "bool",
              "name": "revoked",
              "type": "bool"
            }
          ],
          "internalType": "struct OrangeVerifiedCredential.Certificate[]",
          "name": "",
          "type": "tuple[]"
        }
      ],
      "stateMutability": "view",
      "type": "function"
    },
    {
      "inputs": [
        {
          "internalType": "uint256",
          "name": "_certificateId",
          "type": "uint256"
        }
      ],
      "name": "getCertificate",
      "outputs": [
        {
          "components": [
            {
              "internalType": "bool",
              "name": "_isInit",
              "type": "bool"
            },
            {
              "internalType": "uint256",
              "name": "id",
              "type": "uint256"
            },
            {
              "components": [
                {
                  "internalType": "bool",
                  "name": "_isInit",
                  "type": "bool"
                },
                {
                  "internalType": "uint256",
                  "name": "id",
                  "type": "uint256"
                },
                {
                  "internalType": "string",
                  "name": "name",
                  "type": "string"
                },
                {
                  "internalType": "string",
                  "name": "metadata",
                  "type": "string"
                },
                {
                  "internalType": "uint256",
                  "name": "createdAt",
                  "type": "uint256"
                },
                {
                  "internalType": "bool",
                  "name": "deleted",
                  "type": "bool"
                },
                {
                  "internalType": "address",
                  "name": "owner",
                  "type": "address"
                }
              ],
              "internalType": "struct OrangeVerifiedCredential.CertificateType",
              "name": "type_",
              "type": "tuple"
            },
            {
              "internalType": "string",
              "name": "issuedTo",
              "type": "string"
            },
            {
              "internalType": "string",
              "name": "data",
              "type": "string"
            },
            {
              "internalType": "uint256",
              "name": "createdAt",
              "type": "uint256"
            },
            {
              "internalType": "uint256",
              "name": "validity",
              "type": "uint256"
            },
            {
              "internalType": "bool",
              "name": "verified",
              "type": "bool"
            },
            {
              "internalType": "bool",
              "name": "revoked",
              "type": "bool"
            }
          ],
          "internalType": "struct OrangeVerifiedCredential.Certificate",
          "name": "",
          "type": "tuple"
        }
      ],
      "stateMutability": "view",
      "type": "function"
    },
    {
      "inputs": [
        {
          "internalType": "string",
          "name": "_owner",
          "type": "string"
        }
      ],
      "name": "getCertificatesByOwner",
      "outputs": [
        {
          "components": [
            {
              "internalType": "bool",
              "name": "_isInit",
              "type": "bool"
            },
            {
              "internalType": "uint256",
              "name": "id",
              "type": "uint256"
            },
            {
              "components": [
                {
                  "internalType": "bool",
                  "name": "_isInit",
                  "type": "bool"
                },
                {
                  "internalType": "uint256",
                  "name": "id",
                  "type": "uint256"
                },
                {
                  "internalType": "string",
                  "name": "name",
                  "type": "string"
                },
                {
                  "internalType": "string",
                  "name": "metadata",
                  "type": "string"
                },
                {
                  "internalType": "uint256",
                  "name": "createdAt",
                  "type": "uint256"
                },
                {
                  "internalType": "bool",
                  "name": "deleted",
                  "type": "bool"
                },
                {
                  "internalType": "address",
                  "name": "owner",
                  "type": "address"
                }
              ],
              "internalType": "struct OrangeVerifiedCredential.CertificateType",
              "name": "type_",
              "type": "tuple"
            },
            {
              "internalType": "string",
              "name": "issuedTo",
              "type": "string"
            },
            {
              "internalType": "string",
              "name": "data",
              "type": "string"
            },
            {
              "internalType": "uint256",
              "name": "createdAt",
              "type": "uint256"
            },
            {
              "internalType": "uint256",
              "name": "validity",
              "type": "uint256"
            },
            {
              "internalType": "bool",
              "name": "verified",
              "type": "bool"
            },
            {
              "internalType": "bool",
              "name": "revoked",
              "type": "bool"
            }
          ],
          "internalType": "struct OrangeVerifiedCredential.Certificate[]",
          "name": "",
          "type": "tuple[]"
        }
      ],
      "stateMutability": "view",
      "type": "function"
    },
    {
      "inputs": [],
      "name": "getMyCertificateTypes",
      "outputs": [
        {
          "components": [
            {
              "internalType": "bool",
              "name": "_isInit",
              "type": "bool"
            },
            {
              "internalType": "uint256",
              "name": "id",
              "type": "uint256"
            },
            {
              "internalType": "string",
              "name": "name",
              "type": "string"
            },
            {
              "internalType": "string",
              "name": "metadata",
              "type": "string"
            },
            {
              "internalType": "uint256",
              "name": "createdAt",
              "type": "uint256"
            },
            {
              "internalType": "bool",
              "name": "deleted",
              "type": "bool"
            },
            {
              "internalType": "address",
              "name": "owner",
              "type": "address"
            }
          ],
          "internalType": "struct OrangeVerifiedCredential.CertificateType[]",
          "name": "",
          "type": "tuple[]"
        }
      ],
      "stateMutability": "view",
      "type": "function"
    },
    {
      "inputs": [
        {
          "internalType": "uint256",
          "name": "_certificateId",
          "type": "uint256"
        }
      ],
      "name": "revokeCertificate",
      "outputs": [],
      "stateMutability": "nonpayable",
      "type": "function"
    },
    {
      "inputs": [
        {
          "internalType": "uint256",
          "name": "_certificateId",
          "type": "uint256"
        }
      ],
      "name": "verifyCertificate",
      "outputs": [],
      "stateMutability": "nonpayable",
      "type": "function"
    }
  ],
  "bytecode": "0x608060405234801561001057600080fd5b50613ca2806100206000396000f3fe608060405234801561001057600080fd5b506004361061009e5760003560e01c80634fdbcd22116100665780634fdbcd221461014557806351640fee146101755780636db3dc89146101a55780639d2b5f09146101c3578063dbcd6de5146101f35761009e565b806306f5497e146100a35780631692a942146100bf5780631e639926146100db5780633eafef3a1461010b5780634480459d14610127575b600080fd5b6100bd60048036038101906100b8919061290e565b610223565b005b6100d960048036038101906100d4919061290e565b6103fe565b005b6100f560048036038101906100f09190612a81565b6105d9565b6040516101029190612b2f565b60405180910390f35b6101256004803603810190610120919061290e565b610bef565b005b61012f610d45565b60405161013c9190612d99565b60405180910390f35b61015f600480360381019061015a9190612dbb565b611187565b60405161016c9190612f99565b60405180910390f35b61018f600480360381019061018a919061290e565b61171f565b60405161019c919061308e565b60405180910390f35b6101ad611b66565b6040516101ba9190612d99565b60405180910390f35b6101dd60048036038101906101d891906130b0565b611f28565b6040516101ea9190612b2f565b60405180910390f35b61020d6004803603810190610208919061290e565b612115565b60405161021a9190612f99565b60405180910390f35b600180549050811061026a576040517f08c379a000000000000000000000000000000000000000000000000000000000815260040161026190613185565b60405180910390fd5b6000600182815481106102805761027f6131a5565b5b90600052602060002090600d020190508060020160050160019054906101000a900473ffffffffffffffffffffffffffffffffffffffff1673ffffffffffffffffffffffffffffffffffffffff163373ffffffffffffffffffffffffffffffffffffffff1614610325576040517f08c379a000000000000000000000000000000000000000000000000000000000815260040161031c9061326c565b60405180910390fd5b8060000160009054906101000a900460ff168015610352575080600c0160019054906101000a900460ff16155b610391576040517f08c379a0000000000000000000000000000000000000000000000000000000008152600401610388906132fe565b60405180910390fd5b600181600c0160016101000a81548160ff0219169083151502179055503373ffffffffffffffffffffffffffffffffffffffff168282600201600101547f52c904af499c0f4a2e9cef8afb493c9f98afa31699570893d3ab24ad842ee6c860405160405180910390a45050565b6001805490508110610445576040517f08c379a000000000000000000000000000000000000000000000000000000000815260040161043c90613185565b60405180910390fd5b60006001828154811061045b5761045a6131a5565b5b90600052602060002090600d020190508060000160009054906101000a900460ff168015610498575080600c0160019054906101000a900460ff16155b6104d7576040517f08c379a00000000000000000000000000000000000000000000000000000000081526004016104ce90613390565b60405180910390fd5b8060020160050160019054906101000a900473ffffffffffffffffffffffffffffffffffffffff1673ffffffffffffffffffffffffffffffffffffffff163373ffffffffffffffffffffffffffffffffffffffff161461056c576040517f08c379a000000000000000000000000000000000000000000000000000000000815260040161056390613448565b60405180910390fd5b600181600c0160006101000a81548160ff0219169083151502179055503373ffffffffffffffffffffffffffffffffffffffff168282600201600101547fe9f22d3fbd1213fcb015c358da4f2533b1bb03e867ec755c7ea8f988dcf8bd0f60405160405180910390a45050565b600080805490508510610621576040517f08c379a0000000000000000000000000000000000000000000000000000000008152600401610618906134b4565b60405180910390fd5b60008581548110610635576106346131a5565b5b906000526020600020906006020160000160009054906101000a900460ff16801561069057506000858154811061066f5761066e6131a5565b5b906000526020600020906006020160050160009054906101000a900460ff16155b6106cf576040517f08c379a00000000000000000000000000000000000000000000000000000000081526004016106c690613546565b60405180910390fd5b60008086815481106106e4576106e36131a5565b5b906000526020600020906006020190508060050160009054906101000a900460ff1615610746576040517f08c379a000000000000000000000000000000000000000000000000000000000815260040161073d906135b2565b60405180910390fd5b600084511161078a576040517f08c379a00000000000000000000000000000000000000000000000000000000081526004016107819061361e565b60405180910390fd5b600060018054905090506001604051806101200160405280600115158152602001838152602001846040518060e00160405290816000820160009054906101000a900460ff16151515158152602001600182015481526020016002820180546107f29061366d565b80601f016020809104026020016040519081016040528092919081815260200182805461081e9061366d565b801561086b5780601f106108405761010080835404028352916020019161086b565b820191906000526020600020905b81548152906001019060200180831161084e57829003601f168201915b505050505081526020016003820180546108849061366d565b80601f01602080910402602001604051908101604052809291908181526020018280546108b09061366d565b80156108fd5780601f106108d2576101008083540402835291602001916108fd565b820191906000526020600020905b8154815290600101906020018083116108e057829003601f168201915b50505050508152602001600482015481526020016005820160009054906101000a900460ff161515151581526020016005820160019054906101000a900473ffffffffffffffffffffffffffffffffffffffff1673ffffffffffffffffffffffffffffffffffffffff1673ffffffffffffffffffffffffffffffffffffffff168152505081526020018881526020018781526020014281526020018681526020016000151581526020016000151581525090806001815401808255809150506001900390600052602060002090600d020160009091909190915060008201518160000160006101000a81548160ff0219169083151502179055506020820151816001015560408201518160020160008201518160000160006101000a81548160ff021916908315150217905550602082015181600101556040820151816002019081610a49919061384a565b506060820151816003019081610a5f919061384a565b506080820151816004015560a08201518160050160006101000a81548160ff02191690831515021790555060c08201518160050160016101000a81548173ffffffffffffffffffffffffffffffffffffffff021916908373ffffffffffffffffffffffffffffffffffffffff16021790555050506060820151816008019081610ae8919061384a565b506080820151816009019081610afe919061384a565b5060a082015181600a015560c082015181600b015560e082015181600c0160006101000a81548160ff02191690831515021790555061010082015181600c0160016101000a81548160ff0219169083151502179055505050600260008881526020019081526020016000208190806001815401808255809150506001900390600052602060002001600090919091909150553373ffffffffffffffffffffffffffffffffffffffff1681887ff9de4b753a101e03614d685412dd081739c55bdde6e71f97ddafec99a54eaa8a8989604051610bda929190613955565b60405180910390a48092505050949350505050565b6000805490508110610c36576040517f08c379a0000000000000000000000000000000000000000000000000000000008152600401610c2d906134b4565b60405180910390fd5b6000808281548110610c4b57610c4a6131a5565b5b906000526020600020906006020190508060050160019054906101000a900473ffffffffffffffffffffffffffffffffffffffff1673ffffffffffffffffffffffffffffffffffffffff163373ffffffffffffffffffffffffffffffffffffffff1614610ced576040517f08c379a0000000000000000000000000000000000000000000000000000000008152600401610ce4906139fe565b60405180910390fd5b60018160050160006101000a81548160ff0219169083151502179055507fb9b643bfe80b579c750925c1038e8768df47cb22b78796ee6d1fb21f05932c8982604051610d399190612b2f565b60405180910390a15050565b60606000805b600080549050811015610e2e5760008181548110610d6c57610d6b6131a5565b5b906000526020600020906006020160000160009054906101000a900460ff168015610e0757503373ffffffffffffffffffffffffffffffffffffffff1660008281548110610dbd57610dbc6131a5565b5b906000526020600020906006020160050160019054906101000a900473ffffffffffffffffffffffffffffffffffffffff1673ffffffffffffffffffffffffffffffffffffffff16145b15610e1b578180610e1790613a4d565b9250505b8080610e2690613a4d565b915050610d4b565b5060008167ffffffffffffffff811115610e4b57610e4a612956565b5b604051908082528060200260200182016040528015610e8457816020015b610e71612815565b815260200190600190039081610e695790505b5090506000805b60008054905081101561117d5760008181548110610eac57610eab6131a5565b5b906000526020600020906006020160000160009054906101000a900460ff168015610f4757503373ffffffffffffffffffffffffffffffffffffffff1660008281548110610efd57610efc6131a5565b5b906000526020600020906006020160050160019054906101000a900473ffffffffffffffffffffffffffffffffffffffff1673ffffffffffffffffffffffffffffffffffffffff16145b1561116a5760008181548110610f6057610f5f6131a5565b5b90600052602060002090600602016040518060e00160405290816000820160009054906101000a900460ff1615151515815260200160018201548152602001600282018054610fae9061366d565b80601f0160208091040260200160405190810160405280929190818152602001828054610fda9061366d565b80156110275780601f10610ffc57610100808354040283529160200191611027565b820191906000526020600020905b81548152906001019060200180831161100a57829003601f168201915b505050505081526020016003820180546110409061366d565b80601f016020809104026020016040519081016040528092919081815260200182805461106c9061366d565b80156110b95780601f1061108e576101008083540402835291602001916110b9565b820191906000526020600020905b81548152906001019060200180831161109c57829003601f168201915b50505050508152602001600482015481526020016005820160009054906101000a900460ff161515151581526020016005820160019054906101000a900473ffffffffffffffffffffffffffffffffffffffff1673ffffffffffffffffffffffffffffffffffffffff1673ffffffffffffffffffffffffffffffffffffffff16815250508383815181106111505761114f6131a5565b5b6020026020010181905250818061116690613a4d565b9250505b808061117590613a4d565b915050610e8b565b5081935050505090565b60606000805b600180549050811015611246578380519060200120600182815481106111b6576111b56131a5565b5b90600052602060002090600d02016008016040516111d49190613b38565b604051809103902014801561121f575060001515600182815481106111fc576111fb6131a5565b5b90600052602060002090600d0201600c0160019054906101000a900460ff161515145b1561123357818061122f90613a4d565b9250505b808061123e90613a4d565b91505061118d565b5060008167ffffffffffffffff81111561126357611262612956565b5b60405190808252806020026020018201604052801561129c57816020015b61128961286c565b8152602001906001900390816112815790505b5090506000805b600180549050811015611713578580519060200120600182815481106112cc576112cb6131a5565b5b90600052602060002090600d02016008016040516112ea9190613b38565b604051809103902014801561133557506000151560018281548110611312576113116131a5565b5b90600052602060002090600d0201600c0160019054906101000a900460ff161515145b15611700576001818154811061134e5761134d6131a5565b5b90600052602060002090600d0201604051806101200160405290816000820160009054906101000a900460ff1615151515815260200160018201548152602001600282016040518060e00160405290816000820160009054906101000a900460ff16151515158152602001600182015481526020016002820180546113d29061366d565b80601f01602080910402602001604051908101604052809291908181526020018280546113fe9061366d565b801561144b5780601f106114205761010080835404028352916020019161144b565b820191906000526020600020905b81548152906001019060200180831161142e57829003601f168201915b505050505081526020016003820180546114649061366d565b80601f01602080910402602001604051908101604052809291908181526020018280546114909061366d565b80156114dd5780601f106114b2576101008083540402835291602001916114dd565b820191906000526020600020905b8154815290600101906020018083116114c057829003601f168201915b50505050508152602001600482015481526020016005820160009054906101000a900460ff161515151581526020016005820160019054906101000a900473ffffffffffffffffffffffffffffffffffffffff1673ffffffffffffffffffffffffffffffffffffffff1673ffffffffffffffffffffffffffffffffffffffff168152505081526020016008820180546115759061366d565b80601f01602080910402602001604051908101604052809291908181526020018280546115a19061366d565b80156115ee5780601f106115c3576101008083540402835291602001916115ee565b820191906000526020600020905b8154815290600101906020018083116115d157829003601f168201915b505050505081526020016009820180546116079061366d565b80601f01602080910402602001604051908101604052809291908181526020018280546116339061366d565b80156116805780601f1061165557610100808354040283529160200191611680565b820191906000526020600020905b81548152906001019060200180831161166357829003601f168201915b50505050508152602001600a8201548152602001600b8201548152602001600c820160009054906101000a900460ff16151515158152602001600c820160019054906101000a900460ff1615151515815250508383815181106116e6576116e56131a5565b5b602002602001018190525081806116fc90613a4d565b9250505b808061170b90613a4d565b9150506112a3565b50819350505050919050565b61172761286c565b600180549050821061176e576040517f08c379a000000000000000000000000000000000000000000000000000000000815260040161176590613185565b60405180910390fd5b600060018381548110611784576117836131a5565b5b90600052602060002090600d0201905080600c0160019054906101000a900460ff16156117e6576040517f08c379a00000000000000000000000000000000000000000000000000000000081526004016117dd90613b9b565b60405180910390fd5b80604051806101200160405290816000820160009054906101000a900460ff1615151515815260200160018201548152602001600282016040518060e00160405290816000820160009054906101000a900460ff161515151581526020016001820154815260200160028201805461185d9061366d565b80601f01602080910402602001604051908101604052809291908181526020018280546118899061366d565b80156118d65780601f106118ab576101008083540402835291602001916118d6565b820191906000526020600020905b8154815290600101906020018083116118b957829003601f168201915b505050505081526020016003820180546118ef9061366d565b80601f016020809104026020016040519081016040528092919081815260200182805461191b9061366d565b80156119685780601f1061193d57610100808354040283529160200191611968565b820191906000526020600020905b81548152906001019060200180831161194b57829003601f168201915b50505050508152602001600482015481526020016005820160009054906101000a900460ff161515151581526020016005820160019054906101000a900473ffffffffffffffffffffffffffffffffffffffff1673ffffffffffffffffffffffffffffffffffffffff1673ffffffffffffffffffffffffffffffffffffffff16815250508152602001600882018054611a009061366d565b80601f0160208091040260200160405190810160405280929190818152602001828054611a2c9061366d565b8015611a795780601f10611a4e57610100808354040283529160200191611a79565b820191906000526020600020905b815481529060010190602001808311611a5c57829003601f168201915b50505050508152602001600982018054611a929061366d565b80601f0160208091040260200160405190810160405280929190818152602001828054611abe9061366d565b8015611b0b5780601f10611ae057610100808354040283529160200191611b0b565b820191906000526020600020905b815481529060010190602001808311611aee57829003601f168201915b50505050508152602001600a8201548152602001600b8201548152602001600c820160009054906101000a900460ff16151515158152602001600c820160019054906101000a900460ff161515151581525050915050919050565b60606000805b600080549050811015611c0f5760008181548110611b8d57611b8c6131a5565b5b906000526020600020906006020160000160009054906101000a900460ff168015611be8575060008181548110611bc757611bc66131a5565b5b906000526020600020906006020160050160009054906101000a900460ff16155b15611bfc578180611bf890613a4d565b9250505b8080611c0790613a4d565b915050611b6c565b5060008167ffffffffffffffff811115611c2c57611c2b612956565b5b604051908082528060200260200182016040528015611c6557816020015b611c52612815565b815260200190600190039081611c4a5790505b5090506000805b600080549050811015611f1e5760008181548110611c8d57611c8c6131a5565b5b906000526020600020906006020160000160009054906101000a900460ff168015611ce8575060008181548110611cc757611cc66131a5565b5b906000526020600020906006020160050160009054906101000a900460ff16155b15611f0b5760008181548110611d0157611d006131a5565b5b90600052602060002090600602016040518060e00160405290816000820160009054906101000a900460ff1615151515815260200160018201548152602001600282018054611d4f9061366d565b80601f0160208091040260200160405190810160405280929190818152602001828054611d7b9061366d565b8015611dc85780601f10611d9d57610100808354040283529160200191611dc8565b820191906000526020600020905b815481529060010190602001808311611dab57829003601f168201915b50505050508152602001600382018054611de19061366d565b80601f0160208091040260200160405190810160405280929190818152602001828054611e0d9061366d565b8015611e5a5780601f10611e2f57610100808354040283529160200191611e5a565b820191906000526020600020905b815481529060010190602001808311611e3d57829003601f168201915b50505050508152602001600482015481526020016005820160009054906101000a900460ff161515151581526020016005820160019054906101000a900473ffffffffffffffffffffffffffffffffffffffff1673ffffffffffffffffffffffffffffffffffffffff1673ffffffffffffffffffffffffffffffffffffffff1681525050838381518110611ef157611ef06131a5565b5b60200260200101819052508180611f0790613a4d565b9250505b8080611f1690613a4d565b915050611c6c565b5081935050505090565b600080835111611f6d576040517f08c379a0000000000000000000000000000000000000000000000000000000008152600401611f6490613c07565b60405180910390fd5b60008080549050905060006040518060e001604052806001151581526020018381526020018681526020018581526020014281526020016000151581526020013373ffffffffffffffffffffffffffffffffffffffff16815250908060018154018082558091505060019003906000526020600020906006020160009091909190915060008201518160000160006101000a81548160ff02191690831515021790555060208201518160010155604082015181600201908161202f919061384a565b506060820151816003019081612045919061384a565b506080820151816004015560a08201518160050160006101000a81548160ff02191690831515021790555060c08201518160050160016101000a81548173ffffffffffffffffffffffffffffffffffffffff021916908373ffffffffffffffffffffffffffffffffffffffff16021790555050503373ffffffffffffffffffffffffffffffffffffffff167fbf225f48aa26a33cdad210f2ed15344bae33dfd537e1d39ea783fcf8b0c8459782868660405161210393929190613c27565b60405180910390a28091505092915050565b6060600080549050821061215e576040517f08c379a0000000000000000000000000000000000000000000000000000000008152600401612155906134b4565b60405180910390fd5b60008281548110612172576121716131a5565b5b906000526020600020906006020160000160009054906101000a900460ff1680156121cd5750600082815481106121ac576121ab6131a5565b5b906000526020600020906006020160050160009054906101000a900460ff16155b61220c576040517f08c379a000000000000000000000000000000000000000000000000000000000815260040161220390613546565b60405180910390fd5b60006002600084815260200190815260200160002080548060200260200160405190810160405280929190818152602001828054801561226b57602002820191906000526020600020905b815481526020019060010190808311612257575b505050505090506000805b8251811015612335576000838281518110612294576122936131a5565b5b60200260200101519050600181815481106122b2576122b16131a5565b5b90600052602060002090600d020160000160009054906101000a900460ff16801561230d5750600181815481106122ec576122eb6131a5565b5b90600052602060002090600d0201600c0160019054906101000a900460ff16155b1561232157828061231d90613a4d565b9350505b50808061232d90613a4d565b915050612276565b5060008167ffffffffffffffff81111561235257612351612956565b5b60405190808252806020026020018201604052801561238b57816020015b61237861286c565b8152602001906001900390816123705790505b5090506000805b84518110156128085760008582815181106123b0576123af6131a5565b5b60200260200101519050600181815481106123ce576123cd6131a5565b5b90600052602060002090600d020160000160009054906101000a900460ff168015612429575060018181548110612408576124076131a5565b5b90600052602060002090600d0201600c0160019054906101000a900460ff16155b156127f45760018181548110612442576124416131a5565b5b90600052602060002090600d0201604051806101200160405290816000820160009054906101000a900460ff1615151515815260200160018201548152602001600282016040518060e00160405290816000820160009054906101000a900460ff16151515158152602001600182015481526020016002820180546124c69061366d565b80601f01602080910402602001604051908101604052809291908181526020018280546124f29061366d565b801561253f5780601f106125145761010080835404028352916020019161253f565b820191906000526020600020905b81548152906001019060200180831161252257829003601f168201915b505050505081526020016003820180546125589061366d565b80601f01602080910402602001604051908101604052809291908181526020018280546125849061366d565b80156125d15780601f106125a6576101008083540402835291602001916125d1565b820191906000526020600020905b8154815290600101906020018083116125b457829003601f168201915b50505050508152602001600482015481526020016005820160009054906101000a900460ff161515151581526020016005820160019054906101000a900473ffffffffffffffffffffffffffffffffffffffff1673ffffffffffffffffffffffffffffffffffffffff1673ffffffffffffffffffffffffffffffffffffffff168152505081526020016008820180546126699061366d565b80601f01602080910402602001604051908101604052809291908181526020018280546126959061366d565b80156126e25780601f106126b7576101008083540402835291602001916126e2565b820191906000526020600020905b8154815290600101906020018083116126c557829003601f168201915b505050505081526020016009820180546126fb9061366d565b80601f01602080910402602001604051908101604052809291908181526020018280546127279061366d565b80156127745780601f1061274957610100808354040283529160200191612774565b820191906000526020600020905b81548152906001019060200180831161275757829003601f168201915b50505050508152602001600a8201548152602001600b8201548152602001600c820160009054906101000a900460ff16151515158152602001600c820160019054906101000a900460ff1615151515815250508484815181106127da576127d96131a5565b5b602002602001018190525082806127f090613a4d565b9350505b50808061280090613a4d565b915050612392565b5081945050505050919050565b6040518060e0016040528060001515815260200160008152602001606081526020016060815260200160008152602001600015158152602001600073ffffffffffffffffffffffffffffffffffffffff1681525090565b60405180610120016040528060001515815260200160008152602001612890612815565b8152602001606081526020016060815260200160008152602001600081526020016000151581526020016000151581525090565b6000604051905090565b600080fd5b600080fd5b6000819050919050565b6128eb816128d8565b81146128f657600080fd5b50565b600081359050612908816128e2565b92915050565b600060208284031215612924576129236128ce565b5b6000612932848285016128f9565b91505092915050565b600080fd5b600080fd5b6000601f19601f8301169050919050565b7f4e487b7100000000000000000000000000000000000000000000000000000000600052604160045260246000fd5b61298e82612945565b810181811067ffffffffffffffff821117156129ad576129ac612956565b5b80604052505050565b60006129c06128c4565b90506129cc8282612985565b919050565b600067ffffffffffffffff8211156129ec576129eb612956565b5b6129f582612945565b9050602081019050919050565b82818337600083830152505050565b6000612a24612a1f846129d1565b6129b6565b905082815260208101848484011115612a4057612a3f612940565b5b612a4b848285612a02565b509392505050565b600082601f830112612a6857612a6761293b565b5b8135612a78848260208601612a11565b91505092915050565b60008060008060808587031215612a9b57612a9a6128ce565b5b6000612aa9878288016128f9565b945050602085013567ffffffffffffffff811115612aca57612ac96128d3565b5b612ad687828801612a53565b935050604085013567ffffffffffffffff811115612af757612af66128d3565b5b612b0387828801612a53565b9250506060612b14878288016128f9565b91505092959194509250565b612b29816128d8565b82525050565b6000602082019050612b446000830184612b20565b92915050565b600081519050919050565b600082825260208201905092915050565b6000819050602082019050919050565b60008115159050919050565b612b8b81612b76565b82525050565b612b9a816128d8565b82525050565b600081519050919050565b600082825260208201905092915050565b60005b83811015612bda578082015181840152602081019050612bbf565b60008484015250505050565b6000612bf182612ba0565b612bfb8185612bab565b9350612c0b818560208601612bbc565b612c1481612945565b840191505092915050565b600073ffffffffffffffffffffffffffffffffffffffff82169050919050565b6000612c4a82612c1f565b9050919050565b612c5a81612c3f565b82525050565b600060e083016000830151612c786000860182612b82565b506020830151612c8b6020860182612b91565b5060408301518482036040860152612ca38282612be6565b91505060608301518482036060860152612cbd8282612be6565b9150506080830151612cd26080860182612b91565b5060a0830151612ce560a0860182612b82565b5060c0830151612cf860c0860182612c51565b508091505092915050565b6000612d0f8383612c60565b905092915050565b6000602082019050919050565b6000612d2f82612b4a565b612d398185612b55565b935083602082028501612d4b85612b66565b8060005b85811015612d875784840389528151612d688582612d03565b9450612d7383612d17565b925060208a01995050600181019050612d4f565b50829750879550505050505092915050565b60006020820190508181036000830152612db38184612d24565b905092915050565b600060208284031215612dd157612dd06128ce565b5b600082013567ffffffffffffffff811115612def57612dee6128d3565b5b612dfb84828501612a53565b91505092915050565b600081519050919050565b600082825260208201905092915050565b6000819050602082019050919050565b600061012083016000830151612e496000860182612b82565b506020830151612e5c6020860182612b91565b5060408301518482036040860152612e748282612c60565b91505060608301518482036060860152612e8e8282612be6565b91505060808301518482036080860152612ea88282612be6565b91505060a0830151612ebd60a0860182612b91565b5060c0830151612ed060c0860182612b91565b5060e0830151612ee360e0860182612b82565b50610100830151612ef8610100860182612b82565b508091505092915050565b6000612f0f8383612e30565b905092915050565b6000602082019050919050565b6000612f2f82612e04565b612f398185612e0f565b935083602082028501612f4b85612e20565b8060005b85811015612f875784840389528151612f688582612f03565b9450612f7383612f17565b925060208a01995050600181019050612f4f565b50829750879550505050505092915050565b60006020820190508181036000830152612fb38184612f24565b905092915050565b600061012083016000830151612fd46000860182612b82565b506020830151612fe76020860182612b91565b5060408301518482036040860152612fff8282612c60565b915050606083015184820360608601526130198282612be6565b915050608083015184820360808601526130338282612be6565b91505060a083015161304860a0860182612b91565b5060c083015161305b60c0860182612b91565b5060e083015161306e60e0860182612b82565b50610100830151613083610100860182612b82565b508091505092915050565b600060208201905081810360008301526130a88184612fbb565b905092915050565b600080604083850312156130c7576130c66128ce565b5b600083013567ffffffffffffffff8111156130e5576130e46128d3565b5b6130f185828601612a53565b925050602083013567ffffffffffffffff811115613112576131116128d3565b5b61311e85828601612a53565b9150509250929050565b600082825260208201905092915050565b7f496e76616c696420636572746966696361746520494400000000000000000000600082015250565b600061316f601683613128565b915061317a82613139565b602082019050919050565b6000602082019050818103600083015261319e81613162565b9050919050565b7f4e487b7100000000000000000000000000000000000000000000000000000000600052603260045260246000fd5b7f4f6e6c79207468652063657274696669636174652074797065206f776e65722060008201527f63616e207265766f6b6520636572746966696361746573206f6620746869732060208201527f7479706500000000000000000000000000000000000000000000000000000000604082015250565b6000613256604483613128565b9150613261826131d4565b606082019050919050565b6000602082019050818103600083015261328581613249565b9050919050565b7f436572746966696361746520646f6573206e6f74206578697374206f7220776160008201527f7320616c7265616479207265766f6b6564000000000000000000000000000000602082015250565b60006132e8603183613128565b91506132f38261328c565b604082019050919050565b60006020820190508181036000830152613317816132db565b9050919050565b7f436572746966696361746520646f6573206e6f74206578697374206f7220776160008201527f73207265766f6b65640000000000000000000000000000000000000000000000602082015250565b600061337a602983613128565b91506133858261331e565b604082019050919050565b600060208201905081810360008301526133a98161336d565b9050919050565b7f4f6e6c79207468652063657274696669636174652074797065206f776e65722060008201527f63616e2076657269667920636572746966696361746573206f6620746869732060208201527f7479706500000000000000000000000000000000000000000000000000000000604082015250565b6000613432604483613128565b915061343d826133b0565b606082019050919050565b6000602082019050818103600083015261346181613425565b9050919050565b7f496e76616c696420636572746966696361746520747970652049440000000000600082015250565b600061349e601b83613128565b91506134a982613468565b602082019050919050565b600060208201905081810360008301526134cd81613491565b9050919050565b7f43657274696669636174652074797065206973206e6f7420696e697469616c6960008201527f7a6564206f7220686173206265656e2064656c65746564000000000000000000602082015250565b6000613530603783613128565b915061353b826134d4565b604082019050919050565b6000602082019050818103600083015261355f81613523565b9050919050565b7f436572746966696361746520747970652069732064656c657465640000000000600082015250565b600061359c601b83613128565b91506135a782613566565b602082019050919050565b600060208201905081810360008301526135cb8161358f565b9050919050565b7f44617461206d757374206e6f7420626520656d70747900000000000000000000600082015250565b6000613608601683613128565b9150613613826135d2565b602082019050919050565b60006020820190508181036000830152613637816135fb565b9050919050565b7f4e487b7100000000000000000000000000000000000000000000000000000000600052602260045260246000fd5b6000600282049050600182168061368557607f821691505b6020821081036136985761369761363e565b5b50919050565b60008190508160005260206000209050919050565b60006020601f8301049050919050565b600082821b905092915050565b6000600883026137007fffffffffffffffffffffffffffffffffffffffffffffffffffffffffffffffff826136c3565b61370a86836136c3565b95508019841693508086168417925050509392505050565b6000819050919050565b600061374761374261373d846128d8565b613722565b6128d8565b9050919050565b6000819050919050565b6137618361372c565b61377561376d8261374e565b8484546136d0565b825550505050565b600090565b61378a61377d565b613795818484613758565b505050565b5b818110156137b9576137ae600082613782565b60018101905061379b565b5050565b601f8211156137fe576137cf8161369e565b6137d8846136b3565b810160208510156137e7578190505b6137fb6137f3856136b3565b83018261379a565b50505b505050565b600082821c905092915050565b600061382160001984600802613803565b1980831691505092915050565b600061383a8383613810565b9150826002028217905092915050565b61385382612ba0565b67ffffffffffffffff81111561386c5761386b612956565b5b613876825461366d565b6138818282856137bd565b600060209050601f8311600181146138b457600084156138a2578287015190505b6138ac858261382e565b865550613914565b601f1984166138c28661369e565b60005b828110156138ea578489015182556001820191506020850194506020810190506138c5565b868310156139075784890151613903601f891682613810565b8355505b6001600288020188555050505b505050505050565b600061392782612ba0565b6139318185613128565b9350613941818560208601612bbc565b61394a81612945565b840191505092915050565b6000604082019050818103600083015261396f818561391c565b90508181036020830152613983818461391c565b90509392505050565b7f4f6e6c79207468652063657274696669636174652074797065206f776e65722060008201527f63616e2064656c65746520697400000000000000000000000000000000000000602082015250565b60006139e8602d83613128565b91506139f38261398c565b604082019050919050565b60006020820190508181036000830152613a17816139db565b9050919050565b7f4e487b7100000000000000000000000000000000000000000000000000000000600052601160045260246000fd5b6000613a58826128d8565b91507fffffffffffffffffffffffffffffffffffffffffffffffffffffffffffffffff8203613a8a57613a89613a1e565b5b600182019050919050565b600081905092915050565b60008190508160005260206000209050919050565b60008154613ac28161366d565b613acc8186613a95565b94506001821660008114613ae75760018114613afc57613b2f565b60ff1983168652811515820286019350613b2f565b613b0585613aa0565b60005b83811015613b2757815481890152600182019150602081019050613b08565b838801955050505b50505092915050565b6000613b448284613ab5565b915081905092915050565b7f436572746966696361746520776173207265766f6b6564000000000000000000600082015250565b6000613b85601783613128565b9150613b9082613b4f565b602082019050919050565b60006020820190508181036000830152613bb481613b78565b9050919050565b7f4e616d65206d757374206e6f7420626520656d70747900000000000000000000600082015250565b6000613bf1601683613128565b9150613bfc82613bbb565b602082019050919050565b60006020820190508181036000830152613c2081613be4565b9050919050565b6000606082019050613c3c6000830186612b20565b8181036020830152613c4e818561391c565b90508181036040830152613c62818461391c565b905094935050505056fea264697066735822122007903acecd0c64e55bca8e230c9db0b35f14ee4831f3d253098b2d70fb92184f64736f6c63430008110033",
  "linkReferences": {},
  "deployedLinkReferences": {}
}